{
  "contractName": "Main",
  "abi": [
    {
      "constant": true,
      "inputs": [],
      "name": "account",
      "outputs": [
        {
          "name": "",
          "type": "address"
        }
      ],
      "payable": false,
      "stateMutability": "view",
      "type": "function"
    },
    {
      "constant": true,
      "inputs": [],
      "name": "owner",
      "outputs": [
        {
          "name": "",
          "type": "address"
        }
      ],
      "payable": false,
      "stateMutability": "view",
      "type": "function"
    },
    {
      "constant": true,
      "inputs": [],
      "name": "store",
      "outputs": [
        {
          "name": "",
          "type": "address"
        }
      ],
      "payable": false,
      "stateMutability": "view",
      "type": "function"
    },
    {
      "constant": true,
      "inputs": [],
      "name": "order",
      "outputs": [
        {
          "name": "",
          "type": "address"
        }
      ],
      "payable": false,
      "stateMutability": "view",
      "type": "function"
    },
    {
      "inputs": [],
      "payable": true,
      "stateMutability": "payable",
      "type": "constructor"
    },
    {
      "anonymous": false,
      "inputs": [
        {
          "indexed": true,
          "name": "userAddress",
          "type": "address"
        },
        {
          "indexed": false,
          "name": "ipfsHash",
          "type": "string"
        }
      ],
      "name": "RegisterEvent",
      "type": "event"
    },
    {
      "anonymous": false,
      "inputs": [
        {
          "indexed": true,
          "name": "userAddress",
          "type": "address"
        },
        {
          "indexed": false,
          "name": "ipfsHash",
          "type": "string"
        }
      ],
      "name": "ChangeInfoEvent",
      "type": "event"
    },
    {
      "anonymous": false,
      "inputs": [
        {
          "indexed": true,
          "name": "userAddress",
          "type": "address"
        },
        {
          "indexed": false,
          "name": "index",
          "type": "string"
        },
        {
          "indexed": false,
          "name": "ipfsHash",
          "type": "string"
        },
        {
          "indexed": false,
          "name": "userNum",
          "type": "uint256"
        },
        {
          "indexed": false,
          "name": "homeNum",
          "type": "uint256"
        },
        {
          "indexed": false,
          "name": "price",
          "type": "uint256"
        }
      ],
      "name": "AddGoodsEvent",
      "type": "event"
    },
    {
      "anonymous": false,
      "inputs": [
        {
          "indexed": true,
          "name": "userAddress",
          "type": "address"
        },
        {
          "indexed": false,
          "name": "index",
          "type": "string"
        },
        {
          "indexed": false,
          "name": "userNum",
          "type": "uint256"
        },
        {
          "indexed": false,
          "name": "homeNum",
          "type": "uint256"
        },
        {
          "indexed": false,
          "name": "oldHash",
          "type": "string"
        },
        {
          "indexed": false,
          "name": "newHash",
          "type": "string"
        },
        {
          "indexed": false,
          "name": "price",
          "type": "uint256"
        }
      ],
      "name": "ChangeGoodsEvent",
      "type": "event"
    },
    {
      "anonymous": false,
      "inputs": [
        {
          "indexed": false,
          "name": "seller",
          "type": "address"
        },
        {
          "indexed": false,
          "name": "buyer",
          "type": "address"
        },
        {
          "indexed": false,
          "name": "orderAddress",
          "type": "address"
        },
        {
          "indexed": false,
          "name": "ipfsHash",
          "type": "string"
        },
        {
          "indexed": false,
          "name": "price",
          "type": "uint256"
        }
      ],
      "name": "NewOrderEvent",
      "type": "event"
    },
    {
      "anonymous": false,
      "inputs": [
        {
          "indexed": true,
          "name": "buyer",
          "type": "address"
        },
        {
          "indexed": true,
          "name": "order",
          "type": "address"
        }
      ],
      "name": "OrderDoneEvent",
      "type": "event"
    },
    {
      "anonymous": false,
      "inputs": [
        {
          "indexed": true,
          "name": "buyer",
          "type": "address"
        },
        {
          "indexed": true,
          "name": "order",
          "type": "address"
        }
      ],
      "name": "RefundEvent",
      "type": "event"
    },
    {
      "anonymous": false,
      "inputs": [
        {
          "indexed": true,
          "name": "seller",
          "type": "address"
        },
        {
          "indexed": true,
          "name": "order",
          "type": "address"
        }
      ],
      "name": "RefundAgreeEvent",
      "type": "event"
    },
    {
      "constant": false,
      "inputs": [
        {
          "name": "_owner",
          "type": "address"
        }
      ],
      "name": "changeOwner",
      "outputs": [],
      "payable": false,
      "stateMutability": "nonpayable",
      "type": "function"
    },
    {
      "constant": false,
      "inputs": [
        {
          "name": "_newMain",
          "type": "address"
        }
      ],
      "name": "updateMain",
      "outputs": [],
      "payable": false,
      "stateMutability": "nonpayable",
      "type": "function"
    },
    {
      "constant": false,
      "inputs": [
        {
          "name": "_account",
          "type": "address"
        },
        {
          "name": "_store",
          "type": "address"
        }
      ],
      "name": "link",
      "outputs": [],
      "payable": false,
      "stateMutability": "nonpayable",
      "type": "function"
    },
    {
      "constant": false,
      "inputs": [
        {
          "name": "ipfsHash",
          "type": "string"
        }
      ],
      "name": "register",
      "outputs": [],
      "payable": false,
      "stateMutability": "nonpayable",
      "type": "function"
    },
    {
      "constant": false,
      "inputs": [
        {
          "name": "ipfsHash",
          "type": "string"
        }
      ],
      "name": "changeInfo",
      "outputs": [],
      "payable": false,
      "stateMutability": "nonpayable",
      "type": "function"
    },
    {
      "constant": false,
      "inputs": [
        {
          "name": "index",
          "type": "string"
        },
        {
          "name": "ipfsHash",
          "type": "string"
        },
        {
          "name": "ipfsHash1",
          "type": "bytes32"
        },
        {
          "name": "ipfsHash2",
          "type": "bytes14"
        },
        {
          "name": "price",
          "type": "uint256"
        }
      ],
      "name": "addGoods",
      "outputs": [],
      "payable": false,
      "stateMutability": "nonpayable",
      "type": "function"
    },
    {
      "constant": false,
      "inputs": [
        {
          "name": "userNum",
          "type": "uint256"
        },
        {
          "name": "homeNum",
          "type": "uint256"
        },
        {
          "name": "oldHash",
          "type": "string"
        },
        {
          "name": "newHash",
          "type": "string"
        },
        {
          "name": "ipfsHash1",
          "type": "bytes32"
        },
        {
          "name": "ipfsHash2",
          "type": "bytes14"
        },
        {
          "name": "index",
          "type": "string"
        },
        {
          "name": "price",
          "type": "uint256"
        }
      ],
      "name": "changeGoods",
      "outputs": [],
      "payable": false,
      "stateMutability": "nonpayable",
      "type": "function"
    },
    {
      "constant": false,
      "inputs": [
        {
          "name": "seller",
          "type": "address"
        },
        {
          "name": "ipfsHash",
          "type": "string"
        },
        {
          "name": "startTime",
          "type": "string"
        }
      ],
      "name": "newOrder",
      "outputs": [],
      "payable": true,
      "stateMutability": "payable",
      "type": "function"
    },
    {
      "constant": false,
      "inputs": [
        {
          "name": "orderAddress",
          "type": "address"
        },
        {
          "name": "endTime",
          "type": "string"
        }
      ],
      "name": "orderDone",
      "outputs": [],
      "payable": false,
      "stateMutability": "nonpayable",
      "type": "function"
    },
    {
      "constant": false,
      "inputs": [
        {
          "name": "orderAddress",
          "type": "address"
        }
      ],
      "name": "refundApply",
      "outputs": [],
      "payable": false,
      "stateMutability": "nonpayable",
      "type": "function"
    },
    {
      "constant": false,
      "inputs": [
        {
          "name": "orderAddress",
          "type": "address"
        },
        {
          "name": "endTime",
          "type": "string"
        }
      ],
      "name": "refundAgree",
      "outputs": [],
      "payable": false,
      "stateMutability": "nonpayable",
      "type": "function"
    },
    {
      "constant": true,
      "inputs": [
        {
          "name": "userAddress",
          "type": "address"
        }
      ],
      "name": "getInfo",
      "outputs": [
        {
          "name": "registed",
          "type": "bool"
        },
        {
          "name": "infoHash",
          "type": "string"
        },
        {
          "name": "orderCount",
          "type": "uint256"
        },
        {
          "name": "goodsCount",
          "type": "uint256"
        }
      ],
      "payable": false,
      "stateMutability": "view",
      "type": "function"
    },
    {
      "constant": true,
      "inputs": [],
      "name": "getOrders",
      "outputs": [
        {
          "name": "",
          "type": "address[]"
        }
      ],
      "payable": false,
      "stateMutability": "view",
      "type": "function"
    },
    {
      "constant": true,
      "inputs": [
        {
          "name": "orderAddress",
          "type": "address"
        }
      ],
      "name": "getOrderInfo",
      "outputs": [
        {
          "name": "seller",
          "type": "address"
        },
        {
          "name": "buyer",
          "type": "address"
        },
        {
          "name": "ipfsHash",
          "type": "string"
        },
        {
          "name": "price",
          "type": "uint256"
        },
        {
          "name": "startTime",
          "type": "string"
        },
        {
          "name": "endTime",
          "type": "string"
        },
        {
          "name": "done",
          "type": "bool"
        },
        {
          "name": "refund",
          "type": "bool"
        },
        {
          "name": "agreeRefund",
          "type": "bool"
        }
      ],
      "payable": false,
      "stateMutability": "view",
      "type": "function"
    },
    {
      "constant": true,
      "inputs": [
        {
          "name": "sellerAddress",
          "type": "address"
        }
      ],
      "name": "getGoods",
      "outputs": [
        {
          "name": "goods1",
          "type": "bytes32[]"
        },
        {
          "name": "goods2",
          "type": "bytes14[]"
        }
      ],
      "payable": false,
      "stateMutability": "view",
      "type": "function"
    },
    {
      "constant": true,
      "inputs": [
        {
          "name": "index",
          "type": "string"
        }
      ],
      "name": "getIndexGoods",
      "outputs": [
        {
          "name": "goods1",
          "type": "bytes32[]"
        },
        {
          "name": "goods2",
          "type": "bytes14[]"
        }
      ],
      "payable": false,
      "stateMutability": "view",
      "type": "function"
    },
    {
      "constant": true,
      "inputs": [
        {
          "name": "ipfsHash",
          "type": "string"
        }
      ],
      "name": "getNumber",
      "outputs": [
        {
          "name": "",
          "type": "uint256[2]"
        }
      ],
      "payable": false,
      "stateMutability": "view",
      "type": "function"
    }
  ],
  "bytecode": "0x6080604052336000806101000a81548173ffffffffffffffffffffffffffffffffffffffff021916908373ffffffffffffffffffffffffffffffffffffffff1602179055506148bf806100536000396000f30060806040526004361062000133576000357c0100000000000000000000000000000000000000000000000000000000900463ffffffff1680630d20c75014620001385780631946595314620001845780631fa05e4614620001b25780632ca2bc3614620001e05780632e2dc43e146200020e57806336417bb7146200023e5780635dab2420146200026c57806376c532ed146200029c578063881da40014620002ca5780638da5cb5b14620002ea578063975057e7146200031a578063a6f9dae1146200034a578063bf15071d1462000378578063c8dcf8a514620003a8578063cace4de614620003d6578063cd8872d8146200041b578063e8ac013e1462000460578063f21c89ee14620004a4578063f2c298be14620004d2578063f51ed3871462000500578063ffdd5cf1146200052e575b600080fd5b3480156200014557600080fd5b506200016460048036036200015e91908101906200213f565b62000575565b6040516200017b9998979695949392919062002a7a565b60405180910390f35b3480156200019157600080fd5b50620001b06004803603620001aa919081019062002423565b62000683565b005b348015620001bf57600080fd5b50620001de6004803603620001d89190810190620021ac565b62000785565b005b348015620001ed57600080fd5b506200020c60048036036200020691908101906200213f565b62000876565b005b3480156200021b57600080fd5b506200022662000a2f565b60405162000235919062002c51565b60405180910390f35b3480156200024b57600080fd5b506200026a600480360362000264919081019062002468565b62000b0a565b005b3480156200027957600080fd5b506200028462000d20565b60405162000293919062002d21565b60405180910390f35b348015620002a957600080fd5b50620002c86004803603620002c29190810190620021ac565b62000d46565b005b620002e86004803603620002e2919081019062002206565b62000e37565b005b348015620002f757600080fd5b5062000302620011f1565b60405162000311919062002951565b60405180910390f35b3480156200032757600080fd5b506200033262001216565b60405162000341919062002d5b565b60405180910390f35b3480156200035757600080fd5b506200037660048036036200037091908101906200213f565b6200123c565b005b3480156200038557600080fd5b5062000390620012db565b6040516200039f919062002d3e565b60405180910390f35b348015620003b557600080fd5b50620003d46004803603620003ce91908101906200258d565b62001301565b005b348015620003e357600080fd5b50620004026004803603620003fc919081019062002423565b620014d7565b6040516200041292919062002c75565b60405180910390f35b3480156200042857600080fd5b506200044760048036036200044191908101906200213f565b620015bb565b6040516200045792919062002c75565b60405180910390f35b3480156200046d57600080fd5b506200048c600480360362000486919081019062002423565b6200169f565b6040516200049b919062002cb0565b60405180910390f35b348015620004b157600080fd5b50620004d06004803603620004ca91908101906200216b565b62001780565b005b348015620004df57600080fd5b50620004fe6004803603620004f8919081019062002423565b62001862565b005b3480156200050d57600080fd5b506200052c60048036036200052691908101906200213f565b62001964565b005b3480156200053b57600080fd5b506200055a60048036036200055491908101906200213f565b62001a52565b6040516200056c949392919062002ccd565b60405180910390f35b6000806060600060608060008060006200058e62001b44565b8a73ffffffffffffffffffffffffffffffffffffffff166301efb6c86040518163ffffffff167c0100000000000000000000000000000000000000000000000000000000028152600401600060405180830381600087803b158015620005f357600080fd5b505af115801562000608573d6000803e3d6000fd5b505050506040513d6000823e3d601f19601f820116820180604052506200063391908101906200251c565b905080600001519950806020015198508060400151975080606001519650806080015195508060a0015194508060c0015193508060e0015192508061010001519150509193959799909294969850565b600160009054906101000a900473ffffffffffffffffffffffffffffffffffffffff1673ffffffffffffffffffffffffffffffffffffffff166348d83d2a33836040518363ffffffff167c0100000000000000000000000000000000000000000000000000000000028152600401620006fe92919062002b2e565b600060405180830381600087803b1580156200071957600080fd5b505af11580156200072e573d6000803e3d6000fd5b505050503373ffffffffffffffffffffffffffffffffffffffff167f562f28c46ed6fe5d9d2e404537903a617d92d4b1a555d1a6efdcbc841084f951826040516200077a919062002d78565b60405180910390a250565b60008290508073ffffffffffffffffffffffffffffffffffffffff16631fa05e4633846040518363ffffffff167c0100000000000000000000000000000000000000000000000000000000028152600401620007e392919062002b2e565b600060405180830381600087803b158015620007fe57600080fd5b505af115801562000813573d6000803e3d6000fd5b505050508273ffffffffffffffffffffffffffffffffffffffff163373ffffffffffffffffffffffffffffffffffffffff167f86b9627b0b8331deaed2af2402711e48c743f80a572e97917bdd79c4e844f03160405160405180910390a3505050565b6000809054906101000a900473ffffffffffffffffffffffffffffffffffffffff1673ffffffffffffffffffffffffffffffffffffffff163373ffffffffffffffffffffffffffffffffffffffff16141515620008d257600080fd5b600160009054906101000a900473ffffffffffffffffffffffffffffffffffffffff1673ffffffffffffffffffffffffffffffffffffffff1663a6f9dae1826040518263ffffffff167c01000000000000000000000000000000000000000000000000000000000281526004016200094b919062002951565b600060405180830381600087803b1580156200096657600080fd5b505af11580156200097b573d6000803e3d6000fd5b50505050600260009054906101000a900473ffffffffffffffffffffffffffffffffffffffff1673ffffffffffffffffffffffffffffffffffffffff1663a6f9dae1826040518263ffffffff167c0100000000000000000000000000000000000000000000000000000000028152600401620009f8919062002951565b600060405180830381600087803b15801562000a1357600080fd5b505af115801562000a28573d6000803e3d6000fd5b5050505050565b6060600160009054906101000a900473ffffffffffffffffffffffffffffffffffffffff1673ffffffffffffffffffffffffffffffffffffffff1663093376fe336040518263ffffffff167c010000000000000000000000000000000000000000000000000000000002815260040162000aaa919062002951565b600060405180830381600087803b15801562000ac557600080fd5b505af115801562000ada573d6000803e3d6000fd5b505050506040513d6000823e3d601f19601f8201168201806040525062000b0591908101906200228e565b905090565b600080600260009054906101000a900473ffffffffffffffffffffffffffffffffffffffff1673ffffffffffffffffffffffffffffffffffffffff166336417bb788888888886040518663ffffffff167c010000000000000000000000000000000000000000000000000000000002815260040162000b8e95949392919062002d9c565b602060405180830381600087803b15801562000ba957600080fd5b505af115801562000bbe573d6000803e3d6000fd5b505050506040513d601f19601f8201168201806040525062000be4919081019062002561565b9150600160009054906101000a900473ffffffffffffffffffffffffffffffffffffffff1673ffffffffffffffffffffffffffffffffffffffff16631acbe03f33888888876040518663ffffffff167c010000000000000000000000000000000000000000000000000000000002815260040162000c6795949392919062002b62565b602060405180830381600087803b15801562000c8257600080fd5b505af115801562000c97573d6000803e3d6000fd5b505050506040513d601f19601f8201168201806040525062000cbd919081019062002561565b90503373ffffffffffffffffffffffffffffffffffffffff167fbb5f325a3fab05c3f548ac6ccb7d85bbc6cef62844c2d6ce1045ce5ba31d441a888884868860405162000d0f95949392919062002e07565b60405180910390a250505050505050565b600160009054906101000a900473ffffffffffffffffffffffffffffffffffffffff1681565b60008290508073ffffffffffffffffffffffffffffffffffffffff166376c532ed33846040518363ffffffff167c010000000000000000000000000000000000000000000000000000000002815260040162000da492919062002b2e565b600060405180830381600087803b15801562000dbf57600080fd5b505af115801562000dd4573d6000803e3d6000fd5b505050508273ffffffffffffffffffffffffffffffffffffffff163373ffffffffffffffffffffffffffffffffffffffff167fc907c804fe6fe3239a01cd4bac990274b34a82bb289b5be738b421da640337cc60405160405180910390a3505050565b600080600160009054906101000a900473ffffffffffffffffffffffffffffffffffffffff1673ffffffffffffffffffffffffffffffffffffffff1663600e42fa86866040518363ffffffff167c010000000000000000000000000000000000000000000000000000000002815260040162000eb592919062002b2e565b602060405180830381600087803b15801562000ed057600080fd5b505af115801562000ee5573d6000803e3d6000fd5b505050506040513d601f19601f8201168201806040525062000f0b919081019062002372565b151562000f4f576040517f08c379a000000000000000000000000000000000000000000000000000000000815260040162000f469062002f86565b60405180910390fd5b600260009054906101000a900473ffffffffffffffffffffffffffffffffffffffff1673ffffffffffffffffffffffffffffffffffffffff1663524f3889856040518263ffffffff167c010000000000000000000000000000000000000000000000000000000002815260040162000fc8919062002d78565b602060405180830381600087803b15801562000fe357600080fd5b505af115801562000ff8573d6000803e3d6000fd5b505050506040513d601f19601f820116820180604052506200101e919081019062002561565b9150670de0b6b3a764000082023414151562001071576040517f08c379a0000000000000000000000000000000000000000000000000000000008152600401620010689062002fa8565b60405180910390fd5b84338584866200108062001bc3565b6200109095949392919062002a0f565b604051809103906000f080158015620010ad573d6000803e3d6000fd5b509050600160009054906101000a900473ffffffffffffffffffffffffffffffffffffffff1673ffffffffffffffffffffffffffffffffffffffff16630105bea33387846040518463ffffffff167c01000000000000000000000000000000000000000000000000000000000281526004016200112d939291906200296e565b600060405180830381600087803b1580156200114857600080fd5b505af11580156200115d573d6000803e3d6000fd5b505050508073ffffffffffffffffffffffffffffffffffffffff166108fc349081150290604051600060405180830381858888f19350505050158015620011a8573d6000803e3d6000fd5b507f1ffb4e0dd06ff16dc72f84af7eda714fb0ca03be9ea98dfcfbd28c77b7cc87713386838786604051620011e2959493929190620029ab565b60405180910390a15050505050565b6000809054906101000a900473ffffffffffffffffffffffffffffffffffffffff1681565b600260009054906101000a900473ffffffffffffffffffffffffffffffffffffffff1681565b6000809054906101000a900473ffffffffffffffffffffffffffffffffffffffff1673ffffffffffffffffffffffffffffffffffffffff163373ffffffffffffffffffffffffffffffffffffffff161415156200129857600080fd5b806000806101000a81548173ffffffffffffffffffffffffffffffffffffffff021916908373ffffffffffffffffffffffffffffffffffffffff16021790555050565b600360009054906101000a900473ffffffffffffffffffffffffffffffffffffffff1681565b600160009054906101000a900473ffffffffffffffffffffffffffffffffffffffff1673ffffffffffffffffffffffffffffffffffffffff1663fac08179338a8a8a8a8a8a6040518863ffffffff167c010000000000000000000000000000000000000000000000000000000002815260040162001386979695949392919062002bc6565b600060405180830381600087803b158015620013a157600080fd5b505af1158015620013b6573d6000803e3d6000fd5b50505050600260009054906101000a900473ffffffffffffffffffffffffffffffffffffffff1673ffffffffffffffffffffffffffffffffffffffff166314272ea4838989898989886040518863ffffffff167c01000000000000000000000000000000000000000000000000000000000281526004016200143f979695949392919062002e72565b600060405180830381600087803b1580156200145a57600080fd5b505af11580156200146f573d6000803e3d6000fd5b505050503373ffffffffffffffffffffffffffffffffffffffff167f32e84aa077d8c1a8a0d603d5de15265f10de0bb6d6cfcf0ad79ce9842fa4d030838a8a8a8a87604051620014c59695949392919062002f04565b60405180910390a25050505050505050565b606080600260009054906101000a900473ffffffffffffffffffffffffffffffffffffffff1673ffffffffffffffffffffffffffffffffffffffff1663cace4de6846040518263ffffffff167c010000000000000000000000000000000000000000000000000000000002815260040162001553919062002d78565b600060405180830381600087803b1580156200156e57600080fd5b505af115801562001583573d6000803e3d6000fd5b505050506040513d6000823e3d601f19601f82011682018060405250620015ae9190810190620022d3565b8092508193505050915091565b606080600160009054906101000a900473ffffffffffffffffffffffffffffffffffffffff1673ffffffffffffffffffffffffffffffffffffffff1663cd8872d8846040518263ffffffff167c010000000000000000000000000000000000000000000000000000000002815260040162001637919062002951565b600060405180830381600087803b1580156200165257600080fd5b505af115801562001667573d6000803e3d6000fd5b505050506040513d6000823e3d601f19601f82011682018060405250620016929190810190620022d3565b8092508193505050915091565b620016a962001bd4565b600160009054906101000a900473ffffffffffffffffffffffffffffffffffffffff1673ffffffffffffffffffffffffffffffffffffffff16636abdc5c933846040518363ffffffff167c01000000000000000000000000000000000000000000000000000000000281526004016200172492919062002b2e565b6040805180830381600087803b1580156200173e57600080fd5b505af115801562001753573d6000803e3d6000fd5b505050506040513d601f19601f8201168201806040525062001779919081019062002346565b9050919050565b6000809054906101000a900473ffffffffffffffffffffffffffffffffffffffff1673ffffffffffffffffffffffffffffffffffffffff163373ffffffffffffffffffffffffffffffffffffffff16141515620017dc57600080fd5b81600160006101000a81548173ffffffffffffffffffffffffffffffffffffffff021916908373ffffffffffffffffffffffffffffffffffffffff16021790555080600260006101000a81548173ffffffffffffffffffffffffffffffffffffffff021916908373ffffffffffffffffffffffffffffffffffffffff1602179055505050565b600160009054906101000a900473ffffffffffffffffffffffffffffffffffffffff1673ffffffffffffffffffffffffffffffffffffffff166332434a2e33836040518363ffffffff167c0100000000000000000000000000000000000000000000000000000000028152600401620018dd92919062002b2e565b600060405180830381600087803b158015620018f857600080fd5b505af11580156200190d573d6000803e3d6000fd5b505050503373ffffffffffffffffffffffffffffffffffffffff167f2769f6028e34d1d2f6a7d82379707cc039c15c5f501e657476ad755f6b7fa0ed8260405162001959919062002d78565b60405180910390a250565b60008190508073ffffffffffffffffffffffffffffffffffffffff1663f51ed387336040518263ffffffff167c0100000000000000000000000000000000000000000000000000000000028152600401620019c0919062002951565b600060405180830381600087803b158015620019db57600080fd5b505af1158015620019f0573d6000803e3d6000fd5b505050508173ffffffffffffffffffffffffffffffffffffffff163373ffffffffffffffffffffffffffffffffffffffff167f08d66d4f45448ff55d084c82a56d616689800a08eec75b6ef00d03cf95668f5d60405160405180910390a35050565b60006060600080600160009054906101000a900473ffffffffffffffffffffffffffffffffffffffff1673ffffffffffffffffffffffffffffffffffffffff1663ffdd5cf1866040518263ffffffff167c010000000000000000000000000000000000000000000000000000000002815260040162001ad2919062002951565b600060405180830381600087803b15801562001aed57600080fd5b505af115801562001b02573d6000803e3d6000fd5b505050506040513d6000823e3d601f19601f8201168201806040525062001b2d91908101906200239e565b809450819550829650839750505050509193509193565b61012060405190810160405280600073ffffffffffffffffffffffffffffffffffffffff168152602001600073ffffffffffffffffffffffffffffffffffffffff168152602001606081526020016000815260200160608152602001606081526020016000151581526020016000151581526020016000151581525090565b60405161158f80620032f783390190565b6040805190810160405280600290602082028038833980820191505090505090565b600062001c048235620031f8565b905092915050565b600062001c1a8251620031f8565b905092915050565b600082601f830112151562001c3657600080fd5b815162001c4d62001c478262002ff8565b62002fca565b9150818183526020840193506020810190508385602084028201111562001c7357600080fd5b60005b8381101562001ca7578162001c8c888262001c0c565b84526020840193506020830192505060018101905062001c76565b5050505092915050565b600082601f830112151562001cc557600080fd5b815162001cdc62001cd68262003021565b62002fca565b9150818183526020840193506020810190508385602084028201111562001d0257600080fd5b60005b8381101562001d36578162001d1b888262001e7b565b84526020840193506020830192505060018101905062001d05565b5050505092915050565b600082601f830112151562001d5457600080fd5b815162001d6b62001d65826200304a565b62002fca565b9150818183526020840193506020810190508385602084028201111562001d9157600080fd5b60005b8381101562001dc5578162001daa888262001ea7565b84526020840193506020830192505060018101905062001d94565b5050505092915050565b600082601f830112151562001de357600080fd5b600262001dfa62001df48262003073565b62002fca565b9150818385602084028201111562001e1157600080fd5b60005b8381101562001e45578162001e2a888262002129565b84526020840193506020830192505060018101905062001e14565b5050505092915050565b600062001e5d825162003218565b905092915050565b600062001e73823562003224565b905092915050565b600062001e89825162003224565b905092915050565b600062001e9f823562003250565b905092915050565b600062001eb5825162003250565b905092915050565b600082601f830112151562001ed157600080fd5b815162001ee862001ee28262003096565b62002fca565b9150808252602083016020830185838301111562001f0557600080fd5b62001f12838284620032af565b50505092915050565b600082601f830112151562001f2f57600080fd5b813562001f4662001f4082620030c3565b62002fca565b9150808252602083016020830185838301111562001f6357600080fd5b62001f70838284620032a0565b50505092915050565b600082601f830112151562001f8d57600080fd5b815162001fa462001f9e82620030c3565b62002fca565b9150808252602083016020830185838301111562001fc157600080fd5b62001fce838284620032af565b50505092915050565b6000610120828403121562001feb57600080fd5b62001ff861012062002fca565b905060006200200a8482850162001c0c565b6000830152506020620020208482850162001c0c565b602083015250604082015167ffffffffffffffff8111156200204157600080fd5b6200204f8482850162001ebd565b6040830152506060620020658482850162002129565b606083015250608082015167ffffffffffffffff8111156200208657600080fd5b620020948482850162001ebd565b60808301525060a082015167ffffffffffffffff811115620020b557600080fd5b620020c38482850162001ebd565b60a08301525060c0620020d98482850162001e4f565b60c08301525060e0620020ef8482850162001e4f565b60e083015250610100620021068482850162001e4f565b6101008301525092915050565b60006200212182356200325a565b905092915050565b60006200213782516200325a565b905092915050565b6000602082840312156200215257600080fd5b6000620021628482850162001bf6565b91505092915050565b600080604083850312156200217f57600080fd5b60006200218f8582860162001bf6565b9250506020620021a28582860162001bf6565b9150509250929050565b60008060408385031215620021c057600080fd5b6000620021d08582860162001bf6565b925050602083013567ffffffffffffffff811115620021ee57600080fd5b620021fc8582860162001f1b565b9150509250929050565b6000806000606084860312156200221c57600080fd5b60006200222c8682870162001bf6565b935050602084013567ffffffffffffffff8111156200224a57600080fd5b620022588682870162001f1b565b925050604084013567ffffffffffffffff8111156200227657600080fd5b620022848682870162001f1b565b9150509250925092565b600060208284031215620022a157600080fd5b600082015167ffffffffffffffff811115620022bc57600080fd5b620022ca8482850162001c22565b91505092915050565b60008060408385031215620022e757600080fd5b600083015167ffffffffffffffff8111156200230257600080fd5b620023108582860162001d40565b925050602083015167ffffffffffffffff8111156200232e57600080fd5b6200233c8582860162001cb1565b9150509250929050565b6000604082840312156200235957600080fd5b6000620023698482850162001dcf565b91505092915050565b6000602082840312156200238557600080fd5b6000620023958482850162001e4f565b91505092915050565b60008060008060808587031215620023b557600080fd5b6000620023c58782880162001e4f565b945050602085015167ffffffffffffffff811115620023e357600080fd5b620023f18782880162001f79565b9350506040620024048782880162002129565b9250506060620024178782880162002129565b91505092959194509250565b6000602082840312156200243657600080fd5b600082013567ffffffffffffffff8111156200245157600080fd5b6200245f8482850162001f1b565b91505092915050565b600080600080600060a086880312156200248157600080fd5b600086013567ffffffffffffffff8111156200249c57600080fd5b620024aa8882890162001f1b565b955050602086013567ffffffffffffffff811115620024c857600080fd5b620024d68882890162001f1b565b9450506040620024e98882890162001e91565b9350506060620024fc8882890162001e65565b92505060806200250f8882890162002113565b9150509295509295909350565b6000602082840312156200252f57600080fd5b600082015167ffffffffffffffff8111156200254a57600080fd5b620025588482850162001fd7565b91505092915050565b6000602082840312156200257457600080fd5b6000620025848482850162002129565b91505092915050565b600080600080600080600080610100898b031215620025ab57600080fd5b6000620025bb8b828c0162002113565b9850506020620025ce8b828c0162002113565b975050604089013567ffffffffffffffff811115620025ec57600080fd5b620025fa8b828c0162001f1b565b965050606089013567ffffffffffffffff8111156200261857600080fd5b620026268b828c0162001f1b565b9550506080620026398b828c0162001e91565b94505060a06200264c8b828c0162001e65565b93505060c089013567ffffffffffffffff8111156200266a57600080fd5b620026788b828c0162001f1b565b92505060e06200268b8b828c0162002113565b9150509295985092959890939650565b620026a6816200318c565b82525050565b6000620026b98262003121565b808452602084019350620026cd83620030f0565b60005b828110156200270557620026e68683516200269b565b620026f18262003158565b9150602086019550600181019050620026d0565b50849250505092915050565b60006200271e826200312c565b8084526020840193506200273283620030fd565b60005b828110156200276a576200274b86835162002841565b620027568262003165565b915060208601955060018101905062002735565b50849250505092915050565b6000620027838262003137565b80845260208401935062002797836200310a565b60005b82811015620027cf57620027b086835162002852565b620027bb8262003172565b91506020860195506001810190506200279a565b50849250505092915050565b620027e68162003142565b620027f18262003117565b60005b8281101562002829576200280a85835162002940565b62002815826200317f565b9150602085019450600181019050620027f4565b5050505050565b6200283b81620031ac565b82525050565b6200284c81620031b8565b82525050565b6200285d81620031e4565b82525050565b6200286e8162003264565b82525050565b6200287f8162003278565b82525050565b62002890816200328c565b82525050565b6000620028a3826200314d565b808452620028b9816020860160208601620032af565b620028c481620032e5565b602085010191505092915050565b6000601c82527f73656c6c657220646f6e60742068617665207468697320676f6f6473000000006020830152604082019050919050565b6000601082527f7061792077726f6e672076616c756521000000000000000000000000000000006020830152604082019050919050565b6200294b81620031ee565b82525050565b60006020820190506200296860008301846200269b565b92915050565b60006060820190506200298560008301866200269b565b6200299460208301856200269b565b620029a360408301846200269b565b949350505050565b600060a082019050620029c260008301886200269b565b620029d160208301876200269b565b620029e0604083018662002874565b8181036060830152620029f4818562002896565b905062002a05608083018462002940565b9695505050505050565b600060a08201905062002a2660008301886200269b565b62002a3560208301876200269b565b818103604083015262002a49818662002896565b905062002a5a606083018562002940565b818103608083015262002a6e818462002896565b90509695505050505050565b60006101208201905062002a92600083018c6200269b565b62002aa1602083018b6200269b565b818103604083015262002ab5818a62002896565b905062002ac6606083018962002940565b818103608083015262002ada818862002896565b905081810360a083015262002af0818762002896565b905062002b0160c083018662002830565b62002b1060e083018562002830565b62002b2061010083018462002830565b9a9950505050505050505050565b600060408201905062002b4560008301856200269b565b818103602083015262002b59818462002896565b90509392505050565b600060a08201905062002b7960008301886200269b565b818103602083015262002b8d818762002896565b905062002b9e604083018662002852565b62002bad606083018562002841565b62002bbc608083018462002940565b9695505050505050565b600060e08201905062002bdd600083018a6200269b565b62002bec602083018962002940565b62002bfb604083018862002940565b818103606083015262002c0f818762002896565b9050818103608083015262002c25818662002896565b905062002c3660a083018562002852565b62002c4560c083018462002841565b98975050505050505050565b6000602082019050818103600083015262002c6d8184620026ac565b905092915050565b6000604082019050818103600083015262002c91818562002776565b9050818103602083015262002ca7818462002711565b90509392505050565b600060408201905062002cc76000830184620027db565b92915050565b600060808201905062002ce4600083018762002830565b818103602083015262002cf8818662002896565b905062002d09604083018562002940565b62002d18606083018462002940565b95945050505050565b600060208201905062002d38600083018462002863565b92915050565b600060208201905062002d55600083018462002874565b92915050565b600060208201905062002d72600083018462002885565b92915050565b6000602082019050818103600083015262002d94818462002896565b905092915050565b600060a082019050818103600083015262002db8818862002896565b9050818103602083015262002dce818762002896565b905062002ddf604083018662002852565b62002dee606083018562002841565b62002dfd608083018462002940565b9695505050505050565b600060a082019050818103600083015262002e23818862002896565b9050818103602083015262002e39818762002896565b905062002e4a604083018662002940565b62002e59606083018562002940565b62002e68608083018462002940565b9695505050505050565b600060e082019050818103600083015262002e8e818a62002896565b905062002e9f602083018962002940565b818103604083015262002eb3818862002896565b9050818103606083015262002ec9818762002896565b905062002eda608083018662002852565b62002ee960a083018562002841565b62002ef860c083018462002940565b98975050505050505050565b600060c082019050818103600083015262002f20818962002896565b905062002f31602083018862002940565b62002f40604083018762002940565b818103606083015262002f54818662002896565b9050818103608083015262002f6a818562002896565b905062002f7b60a083018462002940565b979650505050505050565b6000602082019050818103600083015262002fa181620028d2565b9050919050565b6000602082019050818103600083015262002fc38162002909565b9050919050565b6000604051905081810181811067ffffffffffffffff8211171562002fee57600080fd5b8060405250919050565b600067ffffffffffffffff8211156200301057600080fd5b602082029050602081019050919050565b600067ffffffffffffffff8211156200303957600080fd5b602082029050602081019050919050565b600067ffffffffffffffff8211156200306257600080fd5b602082029050602081019050919050565b600067ffffffffffffffff8211156200308b57600080fd5b602082029050919050565b600067ffffffffffffffff821115620030ae57600080fd5b601f19601f8301169050602081019050919050565b600067ffffffffffffffff821115620030db57600080fd5b601f19601f8301169050602081019050919050565b6000602082019050919050565b6000602082019050919050565b6000602082019050919050565b6000819050919050565b600081519050919050565b600081519050919050565b600081519050919050565b600060029050919050565b600081519050919050565b6000602082019050919050565b6000602082019050919050565b6000602082019050919050565b6000602082019050919050565b600073ffffffffffffffffffffffffffffffffffffffff82169050919050565b60008115159050919050565b60007fffffffffffffffffffffffffffff00000000000000000000000000000000000082169050919050565b6000819050919050565b6000819050919050565b600073ffffffffffffffffffffffffffffffffffffffff82169050919050565b60008115159050919050565b60007fffffffffffffffffffffffffffff00000000000000000000000000000000000082169050919050565b6000819050919050565b6000819050919050565b600062003271826200318c565b9050919050565b600062003285826200318c565b9050919050565b600062003299826200318c565b9050919050565b82818337600083830152505050565b60005b83811015620032cf578082015181840152602081019050620032b2565b83811115620032df576000848401525b50505050565b6000601f19601f8301169050919050560060806040526040516200158f3803806200158f833981018060405262000029919081019062000276565b336000806101000a81548173ffffffffffffffffffffffffffffffffffffffff021916908373ffffffffffffffffffffffffffffffffffffffff16021790555084600160000160006101000a81548173ffffffffffffffffffffffffffffffffffffffff021916908373ffffffffffffffffffffffffffffffffffffffff160217905550836001800160006101000a81548173ffffffffffffffffffffffffffffffffffffffff021916908373ffffffffffffffffffffffffffffffffffffffff16021790555082600160020190805190602001906200010b9291906200013d565b50816001600301819055508060016004019080519060200190620001319291906200013d565b505050505050620003e5565b828054600181600116156101000203166002900490600052602060002090601f016020900481019282601f106200018057805160ff1916838001178555620001b1565b82800160010185558215620001b1579182015b82811115620001b057825182559160200191906001019062000193565b5b509050620001c09190620001c4565b5090565b620001e991905b80821115620001e5576000816000905550600101620001cb565b5090565b90565b6000620001fa825162000385565b905092915050565b600082601f83011215156200021657600080fd5b81516200022d620002278262000358565b6200032a565b915080825260208301602083018583830111156200024a57600080fd5b62000257838284620003af565b50505092915050565b60006200026e8251620003a5565b905092915050565b600080600080600060a086880312156200028f57600080fd5b60006200029f88828901620001ec565b9550506020620002b288828901620001ec565b945050604086015167ffffffffffffffff811115620002d057600080fd5b620002de8882890162000202565b9350506060620002f18882890162000260565b925050608086015167ffffffffffffffff8111156200030f57600080fd5b6200031d8882890162000202565b9150509295509295909350565b6000604051905081810181811067ffffffffffffffff821117156200034e57600080fd5b8060405250919050565b600067ffffffffffffffff8211156200037057600080fd5b601f19601f8301169050602081019050919050565b600073ffffffffffffffffffffffffffffffffffffffff82169050919050565b6000819050919050565b60005b83811015620003cf578082015181840152602081019050620003b2565b83811115620003df576000848401525b50505050565b61119a80620003f56000396000f300608060405260043610610083576000357c0100000000000000000000000000000000000000000000000000000000900463ffffffff16806301efb6c8146100855780631fa05e46146100b0578063370158ea146100d957806376c532ed1461010c5780638da5cb5b14610135578063a6f9dae114610160578063f51ed38714610189575b005b34801561009157600080fd5b5061009a6101b2565b6040516100a79190611031565b60405180910390f35b3480156100bc57600080fd5b506100d760048036036100d29190810190610dea565b6104bb565b005b3480156100e557600080fd5b506100ee61064b565b60405161010399989796959493929190610f8f565b60405180910390f35b34801561011857600080fd5b50610133600480360361012e9190810190610dea565b6108b6565b005b34801561014157600080fd5b5061014a610a7e565b6040516101579190610f74565b60405180910390f35b34801561016c57600080fd5b5061018760048036036101829190810190610dc1565b610aa3565b005b34801561019557600080fd5b506101b060048036036101ab9190810190610dc1565b610b41565b005b6101ba610c33565b600161012060405190810160405290816000820160009054906101000a900473ffffffffffffffffffffffffffffffffffffffff1673ffffffffffffffffffffffffffffffffffffffff1673ffffffffffffffffffffffffffffffffffffffff1681526020016001820160009054906101000a900473ffffffffffffffffffffffffffffffffffffffff1673ffffffffffffffffffffffffffffffffffffffff1673ffffffffffffffffffffffffffffffffffffffff168152602001600282018054600181600116156101000203166002900480601f01602080910402602001604051908101604052809291908181526020018280546001816001161561010002031660029004801561030e5780601f106102e35761010080835404028352916020019161030e565b820191906000526020600020905b8154815290600101906020018083116102f157829003601f168201915b5050505050815260200160038201548152602001600482018054600181600116156101000203166002900480601f0160208091040260200160405190810160405280929190818152602001828054600181600116156101000203166002900480156103ba5780601f1061038f576101008083540402835291602001916103ba565b820191906000526020600020905b81548152906001019060200180831161039d57829003601f168201915b50505050508152602001600582018054600181600116156101000203166002900480601f01602080910402602001604051908101604052809291908181526020018280546001816001161561010002031660029004801561045c5780601f106104315761010080835404028352916020019161045c565b820191906000526020600020905b81548152906001019060200180831161043f57829003601f168201915b505050505081526020016006820160009054906101000a900460ff161515151581526020016006820160019054906101000a900460ff161515151581526020016006820160029054906101000a900460ff161515151581525050905090565b6000809054906101000a900473ffffffffffffffffffffffffffffffffffffffff1673ffffffffffffffffffffffffffffffffffffffff163373ffffffffffffffffffffffffffffffffffffffff1614151561051657600080fd5b600160060160009054906101000a900460ff1615801561058557506001800160009054906101000a900473ffffffffffffffffffffffffffffffffffffffff1673ffffffffffffffffffffffffffffffffffffffff168273ffffffffffffffffffffffffffffffffffffffff16145b151561058d57fe5b60018060060160006101000a81548160ff02191690831515021790555080600160050190805190602001906105c3929190610cb2565b50600160000160009054906101000a900473ffffffffffffffffffffffffffffffffffffffff1673ffffffffffffffffffffffffffffffffffffffff166108fc3073ffffffffffffffffffffffffffffffffffffffff16319081150290604051600060405180830381858888f19350505050158015610646573d6000803e3d6000fd5b505050565b60018060000160009054906101000a900473ffffffffffffffffffffffffffffffffffffffff16908060010160009054906101000a900473ffffffffffffffffffffffffffffffffffffffff1690806002018054600181600116156101000203166002900480601f0160208091040260200160405190810160405280929190818152602001828054600181600116156101000203166002900480156107315780601f1061070657610100808354040283529160200191610731565b820191906000526020600020905b81548152906001019060200180831161071457829003601f168201915b505050505090806003015490806004018054600181600116156101000203166002900480601f0160208091040260200160405190810160405280929190818152602001828054600181600116156101000203166002900480156107d55780601f106107aa576101008083540402835291602001916107d5565b820191906000526020600020905b8154815290600101906020018083116107b857829003601f168201915b505050505090806005018054600181600116156101000203166002900480601f0160208091040260200160405190810160405280929190818152602001828054600181600116156101000203166002900480156108735780601f1061084857610100808354040283529160200191610873565b820191906000526020600020905b81548152906001019060200180831161085657829003601f168201915b5050505050908060060160009054906101000a900460ff16908060060160019054906101000a900460ff16908060060160029054906101000a900460ff16905089565b6000809054906101000a900473ffffffffffffffffffffffffffffffffffffffff1673ffffffffffffffffffffffffffffffffffffffff163373ffffffffffffffffffffffffffffffffffffffff1614151561091157600080fd5b600160060160009054906101000a900460ff161580156109405750600160060160019054906101000a900460ff165b801561099c5750600160000160009054906101000a900473ffffffffffffffffffffffffffffffffffffffff1673ffffffffffffffffffffffffffffffffffffffff168273ffffffffffffffffffffffffffffffffffffffff16145b15156109a457fe5b60018060060160026101000a81548160ff02191690831515021790555060018060060160006101000a81548160ff02191690831515021790555080600160050190805190602001906109f7929190610cb2565b506001800160009054906101000a900473ffffffffffffffffffffffffffffffffffffffff1673ffffffffffffffffffffffffffffffffffffffff166108fc3073ffffffffffffffffffffffffffffffffffffffff16319081150290604051600060405180830381858888f19350505050158015610a79573d6000803e3d6000fd5b505050565b6000809054906101000a900473ffffffffffffffffffffffffffffffffffffffff1681565b6000809054906101000a900473ffffffffffffffffffffffffffffffffffffffff1673ffffffffffffffffffffffffffffffffffffffff163373ffffffffffffffffffffffffffffffffffffffff16141515610afe57600080fd5b806000806101000a81548173ffffffffffffffffffffffffffffffffffffffff021916908373ffffffffffffffffffffffffffffffffffffffff16021790555050565b6000809054906101000a900473ffffffffffffffffffffffffffffffffffffffff1673ffffffffffffffffffffffffffffffffffffffff163373ffffffffffffffffffffffffffffffffffffffff16141515610b9c57600080fd5b600160060160009054906101000a900460ff16158015610c0b57506001800160009054906101000a900473ffffffffffffffffffffffffffffffffffffffff1673ffffffffffffffffffffffffffffffffffffffff168173ffffffffffffffffffffffffffffffffffffffff16145b1515610c1357fe5b60018060060160016101000a81548160ff02191690831515021790555050565b61012060405190810160405280600073ffffffffffffffffffffffffffffffffffffffff168152602001600073ffffffffffffffffffffffffffffffffffffffff168152602001606081526020016000815260200160608152602001606081526020016000151581526020016000151581526020016000151581525090565b828054600181600116156101000203166002900490600052602060002090601f016020900481019282601f10610cf357805160ff1916838001178555610d21565b82800160010185558215610d21579182015b82811115610d20578251825591602001919060010190610d05565b5b509050610d2e9190610d32565b5090565b610d5491905b80821115610d50576000816000905550600101610d38565b5090565b90565b6000610d6382356110ed565b905092915050565b600082601f8301121515610d7e57600080fd5b8135610d91610d8c82611080565b611053565b91508082526020830160208301858383011115610dad57600080fd5b610db883828461110d565b50505092915050565b600060208284031215610dd357600080fd5b6000610de184828501610d57565b91505092915050565b60008060408385031215610dfd57600080fd5b6000610e0b85828601610d57565b925050602083013567ffffffffffffffff811115610e2857600080fd5b610e3485828601610d6b565b9150509250929050565b610e47816110b7565b82525050565b610e56816110d7565b82525050565b6000610e67826110ac565b808452610e7b81602086016020860161111c565b610e848161114f565b602085010191505092915050565b600061012083016000830151610eab6000860182610e3e565b506020830151610ebe6020860182610e3e565b5060408301518482036040860152610ed68282610e5c565b9150506060830151610eeb6060860182610f65565b5060808301518482036080860152610f038282610e5c565b91505060a083015184820360a0860152610f1d8282610e5c565b91505060c0830151610f3260c0860182610e4d565b5060e0830151610f4560e0860182610e4d565b50610100830151610f5a610100860182610e4d565b508091505092915050565b610f6e816110e3565b82525050565b6000602082019050610f896000830184610e3e565b92915050565b600061012082019050610fa5600083018c610e3e565b610fb2602083018b610e3e565b8181036040830152610fc4818a610e5c565b9050610fd36060830189610f65565b8181036080830152610fe58188610e5c565b905081810360a0830152610ff98187610e5c565b905061100860c0830186610e4d565b61101560e0830185610e4d565b611023610100830184610e4d565b9a9950505050505050505050565b6000602082019050818103600083015261104b8184610e92565b905092915050565b6000604051905081810181811067ffffffffffffffff8211171561107657600080fd5b8060405250919050565b600067ffffffffffffffff82111561109757600080fd5b601f19601f8301169050602081019050919050565b600081519050919050565b600073ffffffffffffffffffffffffffffffffffffffff82169050919050565b60008115159050919050565b6000819050919050565b600073ffffffffffffffffffffffffffffffffffffffff82169050919050565b82818337600083830152505050565b60005b8381101561113a57808201518184015260208101905061111f565b83811115611149576000848401525b50505050565b6000601f19601f83011690509190505600a265627a7a72305820706e137f53fcf2b59acdacb78507dcb7d89173dbeba7ebe08075a1bb059fccb86c6578706572696d656e74616cf50037a265627a7a72305820e2fb5934db45d6aad799cb20d864247e931829830d10876c88c40cc4278655256c6578706572696d656e74616cf50037",
  "source": "pragma solidity ^0.4.24;\npragma experimental ABIEncoderV2;\nimport \"./Account.sol\";\nimport \"./Store.sol\";\nimport \"./Order.sol\";\n\n\ncontract Main {\n\n    address public owner;\n    Account public account;\n    Store public store;\n    Order public order;\n\n    /*****************************************************************\n    ************************        ***************************\n    *****************************************************************/\n\n    event RegisterEvent (address indexed userAddress, string ipfsHash);\n\n    event ChangeInfoEvent (address indexed userAddress, string ipfsHash);\n    \n    event AddGoodsEvent (address indexed userAddress, string index, string ipfsHash, \n    uint256 userNum, uint256 homeNum, uint256 price);\n    \n    event ChangeGoodsEvent (address indexed userAddress, string index, uint256 userNum, \n    uint256 homeNum, string oldHash, string newHash, uint256 price);\n\n    event NewOrderEvent (address seller, address buyer, address orderAddress, string ipfsHash, uint256 price);\n\n    event OrderDoneEvent (address indexed buyer, address indexed order);\n    \n    event RefundEvent (address indexed buyer, address indexed order);\n\n    event RefundAgreeEvent (address indexed seller, address indexed order);\n    /*****************************************************************\n    ************************        ***************************\n    *****************************************************************/\n\n    modifier onlyOwner {\n        require(msg.sender == owner);\n        _;\n    }\n\n    constructor () public payable {\n        owner = msg.sender;\n    }\n\n    function changeOwner(address _owner) public onlyOwner {\n        owner = _owner;\n    }\n\n    function updateMain(address _newMain) public onlyOwner {\n        account.changeOwner(_newMain);\n        store.changeOwner(_newMain);\n    }\n\n    function link(address _account, address _store) public onlyOwner {\n        account = Account(_account);\n        store = Store(_store);\n    }\n    \n    // [IPFSipfs]\n    function register(string ipfsHash) public {\n        account.register(msg.sender, ipfsHash);\n        emit RegisterEvent(msg.sender, ipfsHash);\n    }\n\n    //\n    function changeInfo(string ipfsHash) public {\n        account.changeInfo(msg.sender, ipfsHash);\n        emit ChangeInfoEvent(msg.sender, ipfsHash);\n    }\n\n    //\n    function addGoods(string index, string ipfsHash, bytes32 ipfsHash1, bytes14 ipfsHash2, uint256 price) public {\n        uint256 homeNum = store.addGoods(index, ipfsHash, ipfsHash1, ipfsHash2, price);\n        uint256 userNum = account.addGoods(msg.sender, ipfsHash, ipfsHash1, ipfsHash2, homeNum);\n        emit AddGoodsEvent(msg.sender, index, ipfsHash, userNum, homeNum, price);\n    }\n\n    //()\n    function changeGoods(\n        uint256 userNum, uint256 homeNum, string oldHash, string newHash, \n        bytes32 ipfsHash1, bytes14 ipfsHash2, string index, uint256 price\n        ) public {\n        account.changeGoods(msg.sender, userNum, homeNum, oldHash, newHash, ipfsHash1, ipfsHash2);\n        store.changeGoods(index, homeNum, oldHash, newHash, ipfsHash1, ipfsHash2, price);\n        emit ChangeGoodsEvent(msg.sender, index, userNum, homeNum, oldHash, newHash, price);\n    }\n\n    //\n    function newOrder(address seller, string ipfsHash, string startTime) public payable {\n        //\n        //Stroge\n        //id\n        require(account.verifySeller(seller, ipfsHash), \"seller don`t have this goods\");\n        uint256 price = store.getPrice(ipfsHash);\n        require(msg.value == price * 1e18, \"pay wrong value!\");\n        Order orderInstance = new Order(seller, msg.sender, ipfsHash, price, startTime);\n        account.addOrder(msg.sender, seller, address(orderInstance));\n        address(orderInstance).transfer(msg.value);\n        emit NewOrderEvent(msg.sender, seller, orderInstance, ipfsHash, price);\n    }\n\n    //\n    function orderDone(address orderAddress, string endTime) public {\n        Order orderInstance = Order(orderAddress);\n        orderInstance.orderDone(msg.sender, endTime);\n        emit OrderDoneEvent(msg.sender, orderAddress);\n    }\n\n    //\n    function refundApply(address orderAddress) public {\n        Order orderInstance = Order(orderAddress);\n        orderInstance.refundApply(msg.sender);\n        emit RefundEvent(msg.sender, orderAddress);\n    }\n\n    //\n    function refundAgree(address orderAddress, string endTime) public {\n        Order orderInstance = Order(orderAddress);\n        orderInstance.refundAgree(msg.sender, endTime);\n        emit RefundAgreeEvent(msg.sender, orderAddress);\n    }\n    /*****************************************************************\n    ************************        ***************************\n    *****************************************************************/\n\n    //\n    function getInfo(address userAddress) public view returns (\n        bool registed, string infoHash, uint256 orderCount, uint256 goodsCount\n        ) {\n        (registed, infoHash, orderCount, goodsCount) = account.getInfo(userAddress);\n    }\n    \n    //\n    function getOrders() public view returns (address[]) {\n        return account.getOrders(msg.sender);\n    }\n\n    //\n    function getOrderInfo(address orderAddress) public view returns (\n        address seller,   //\n        address buyer,    //\n        string ipfsHash,  //\n        uint256 price,    //\n        string startTime, //\n        string endTime,   //\n        bool done,        //\n        bool refund,      //\n        bool agreeRefund  //\n    ) {\n        Order.OrderInfo memory info = Order(orderAddress).getOrderInfo();\n        seller = info.seller;\n        buyer = info.buyer;\n        ipfsHash = info.ipfsHash;\n        price = info.price;\n        startTime = info.startTime;\n        endTime = info.endTime;\n        done = info.done;\n        refund = info.refund;\n        agreeRefund = info.agreeRefund;\n    }\n\n    //[Account]\n    function getGoods (address sellerAddress) public view returns (bytes32[] goods1, bytes14[] goods2) {\n        (goods1, goods2) = account.getGoods(sellerAddress);\n    }\n\n    //\n    function getIndexGoods (string index) public view returns (bytes32[] goods1, bytes14[] goods2) {\n        (goods1, goods2) = store.getIndexGoods(index);\n    }\n\n    //number\n    function getNumber(string ipfsHash) public view returns (uint256[2]) {\n        return account.getNumber(msg.sender, ipfsHash);\n    }\n\n}",
  "sourcePath": "/Users/zhouguoliang/Desktop/Project/newPPS/contracts/Main.sol",
  "compiler": {
    "name": "solc",
    "version": "0.4.24+commit.e67f0147.Emscripten.clang"
  },
  "schemaVersion": "2.0.1",
  "updatedAt": "2018-10-30T01:46:05.640Z"
}